:020000020000FC
:040000000C94000458
:100014000C943C000C9449000C9456000C9463001E
:10004000DF9B02C0DF9801C0DF9A23C10CE2302E93
:1000500002E00F933F9200E3302E06E03A94F1F76E
:100060003A940A95D9F73F900F913A9491F70A95EF
:1000700081F701E0602E189500E0601639F3D89BF7
:1000800002C0D89801C0D89A00E0202E00E1E02EEE
:1000900027C000E06016D1F2D99B02C0D99801C0F8
:1000A000D99A01E0202E00E2E02E1AC000E060168E
:1000B00069F2DA9B02C0DA9801C0DA9A02E0202ED7
:1000C00000E4E02E0DC000E0601601F2DB9B02C0F0
:1000D000DB9801C0DB9A03E0202E00E8E02E00C090
:1000E0000FEF03B90EE1302E01E00F933F9200E3D2
:1000F000302E06E03A94F1F73A940A95D9F73F90FA
:100100000F913A9491F70A9581F707EF03B90EE141
:10011000302E01E00F933F9200E3302E06E03A9438
:10012000F1F73A940A95D9F73F900F913A9491F7E5
:100130000A9581F701B10E21002341F403E0102E4E
:10014000DF9B02C0DF9801C0DF9A9DC00EE1302E18
:1001500001E00F933F9200E3302E06E03A94F1F76E
:100160003A940A95D9F73F900F913A9491F70A95EE
:1001700081F70BEF03B90EE1302E01E00F933F92B0
:1001800000E3302E06E03A94F1F73A940A95D9F755
:100190003F900F913A9491F70A9581F701B10E21A2
:1001A000002341F402E0102EDE9B02C0DE9801C065
:1001B000DE9A69C00EE1302E01E00F933F9200E31A
:1001C000302E06E03A94F1F73A940A95D9F73F9029
:1001D0000F913A9491F70A9581F70DEF03B90EE16B
:1001E000302E01E00F933F9200E3302E06E03A9468
:1001F000F1F73A940A95D9F73F900F913A9491F715
:100200000A9581F701B10E21002341F401E0102E7F
:10021000DD9B02C0DD9801C0DD9A35C00EE1302EB5
:1002200001E00F933F9200E3302E06E03A94F1F79D
:100230003A940A95D9F73F900F913A9491F70A951D
:1002400081F70EEF03B90EE1302E01E00F933F92DC
:1002500000E3302E06E03A94F1F73A940A95D9F784
:100260003F900F913A9491F70A9581F701B10E21D1
:10027000002341F400E0102EDC9B02C0DC9801C09A
:10028000DC9A01C000C01AE000EF03B90FEFF02EB6
:10029000189500E0601609F018952F93A1D12CEC69
:1002A000CBD124E4C9D10EEE302E03E00F933F9260
:1002B00000E3302E06E03A94F1F73A940A95D9F724
:1002C0003F900F913A9491F70A9581F726D088D103
:1002D0002CECB2D12EEBB0D1BAD1822EB8D1922E65
:1002E000882CAFEF2F9118953090008037FCFCCF11
:1002F00003D000930080089500D0000008952D30B1
:1003000069F12A30A9F10091008007FDFCCFF4DFEC
:10031000209300C0089501E0E7CF02E0E5CF00E1BF
:10032000E3CF04E1E1CF08E1DFCF0CE1DDCF0DE069
:10033000DBCF0CE0D9CF0EE0D7CF0CE0D5CF05B79F
:10034000006C05BF01E0D0DF06E0CEDF0CE0CCDFC3
:1003500008E3CADF0895022F0068C6CF009100802D
:1003600007FDFCCF00740068C7DF0093008008958C
:100370002F9320E4F0DF2F910895FF91EF91EE0F7E
:10038000FF1FAF93BF93C8953196002021F04AF02C
:10039000002D17D0F8CF3196F695E795BF91AF9124
:1003A000099400FA002DC895A02DA03610F0B2E0F7
:1003B00001C0BB273196043879F0053881F015C0AB
:1003C000E2CF2F93FF93EF93E42DF52D202F099586
:1003D000EF91FF912F9108950C91F3DFD4CF0D9100
:1003E000002309F4D0CFEDDFFACF5F934F933F9313
:1003F0002F939F938F937F936F932D913D914D9169
:100400005D9106FD06C005FD0FC004FD10C003FD93
:1004100019C06AE0702F76957770729580E0902F02
:100420009295937093951AC062E094E003C060E1E6
:1004300094E000C0702F7695777009F478E072959B
:1004400080E00CC06AE0C895802D3196C895702D6B
:100450003196902F95959370939500C0943081F0CC
:10046000933051F0923021F0332716F427FD3FEFFF
:10047000442716F437FD4FEF552716F447FD5FEF7D
:1004800009D06F917F918F919F912F913F914F91C3
:100490005F9179CFCF92BF92AF929F928F92BB180C
:1004A000AA249924882486F4E89455236AF468944D
:1004B000772309F0705150954095309520950FEFB6
:1004C000201B300B400B500B882351F0559547955E
:1004D00037952795B794A794979487948A95B1F701
:1004E0007F9372957F700EE20F9345D00C2D30D024
:1004F0000F930027201730074007500729F0772374
:10050000A1F37A9591F707C0772329F07A9519F02E
:1005100000E257DFF9CF16F40DE253DF0F910E32F0
:1005200011F04FDFFBCF7F917F70772359F049DFC8
:10053000282D392D4A2D5B2D11D00C2D09D041DFEE
:100540007A95D1F78F909F90AF90BF90CF900895FC
:100550000A3010F4005D0895095A0895CC2400E291
:10056000889420FDC60EC7945795479537952795D3
:100570000A95B1F70895CC2400E2221F331F441FCF
:10058000551FCC1CC61A08F4C60E0A95B1F7221FD7
:10059000331F441F551F5095409530952095089561
:1005A000E199FECFAEBBBFBB2DBB1FF0E29AE19A33
:1005B0000895F894E29AE19A78940895E199FECF2B
:1005C000AEBBBFBBE09A2DB308950A9500000000B2
:1005D000000000000000C9F70895C598BD9808956F
:1005E000BD9A00EFF2DFBD9803E2EFDF06B305FB33
:1005F0000DECEBDF0895BD9A0CE1E7DFBD9802E05A
:10060000E4DF06B305FB01E0E0DF0895BD9A01E0F9
:10061000DCDFBD980EE1D9DF06B305FB01E0D5DFD5
:100620000895BD9A01E0D1DFBD9807E0CEDF06B3A3
:1006300005FB07E1CADF08953F9338E0279510F4E2
:10064000E5DF01C0D8DF3A95C9F73F9108953F93A0
:1006500038E02795E6DF27F93A95D9F73F910895D5
:1006600009E148E0279508F4302730FB379537F942
:060670004A95C1F7089550
:100800000FEF0DBF00E10EBF9ADDE7DE98DD0FE0D0
:1008100002B900EF03B90FEF0ABB00EF09BF00E018
:100820000ABF01E007BF08E000BF06E003BF0FEF0B
:1008300001BB0FE7402E01E0502E9FDD0C0D5370E1
:1008400072696E6B6C6572205379730003E2202F1E
:1008500003E2302F03E2402F03E2502FBB27222474
:100860001124FF24AA2777278827992700E0602EE4
:1008700078940C943B0461BA00E0601621F001E02A
:100880006016A9F0F8CFAA23B1F3AA27282D392D95
:100890000FE7402E01E0502E70DD0A437572722082
:1008A00054656D703D8B120422432000E4CF33DD8C
:1008B0000FE7402E01E0502E60DD0C0D454E5445F3
:1008C000523A200003E2202F03E2302F03E2402FB0
:1008D00003E2502F889B02C0889801C0889AFF20AD
:1008E000C9F3FF2403E0101679F48A9B02C08A98AA
:1008F00001C08A9A00E0201631F08B9B02C08B98D1
:1009000001C08B9AE7CF34C003E0201621F401E048
:10091000101609F0DFCF0000EE27FF27EEEEF9E01A
:10092000E20DE20DE20DE20DE10D0491B03039F07F
:10093000B13041F0B23049F0B33051F000C0B1E015
:10094000202F08C0B2E0302F05C0B3E0402F02C016
:10095000B0E0502F00000FE7402E01E0502E0DDDDB
:100960000D0A436F646520696E3A20851200B2CF8C
:100970008D9B02C08D9801C08D9A01E3602F02E328
:10098000702F03E3802F04E3902F621774CF731747
:1009900072CF841770CF95176ECFBDDC8E9B02C0CF
:1009A0008E9801C08E9A04E6302E01E00F933F929C
:1009B00000E3302E06E03A94F1F73A940A95D9F71D
:1009C0003F900F913A9491F70A9581F70FE7402EE7
:1009D00001E0502ED2DC0D0A436F72726563742001
:1009E000436F64650000000000E0602ED7CF313215
:0E09F000334134353642373839432A302344F8
:00000001FF
