:020000020000FC
:080000000C940B010C9422008A
:040020000C942B0011
:100040000C945D0061FE06C02F93262D2160622E68
:100050002F9118951895771B66278EE00F99FECF84
:100060000FE4302E03E03A94F1F73A940A95D9F769
:100070000F9908940F9B8894661F771F0CE3302E0E
:100080000AE03A94F1F73A940A95D9F78A9581F7FC
:1000900060951EF473FD189502C073FF189573FBED
:1000A00067FC61C061FC02C0673C19F162FC27C0BB
:1000B0006F3E99F0633FB9F0189560FECBCF709416
:1000C00018952F93262D2E7F622E2F9118952F9302
:1000D000262D2D7F622E2F9118952F93262D22608D
:1000E000622E2F9118952F93262D2460622E2F912A
:1000F00018952F93262D2068622E2F91189566FE55
:1001000005C065FE10C064FE1BC018952F93262DF8
:100110002064622E2F912F93ABE7B0E0FED16217DF
:100120002F91D9F418952F93262D2062622E2F91AE
:100130002F93ACE7B0E0F1D162172F9171F41895CD
:100140002F93262D2061622E2F912F93ADE7B0E0E3
:10015000E4D162172F9109F418952F93262D28606A
:10016000622E2F91189566FE05C065FE11C064FED3
:100170001DC018952F93262D2064622E2F91F89480
:100180002F93262FABE7B0E0BAD12F917894189532
:100190002F93262D2062622E2F91F8942F93262FD5
:1001A000ACE7B0E0ACD12F91789418952F93262D21
:1001B0002061622E2F91F8942F93262FADE7B0E0A7
:1001C0009ED12F91789404EF302E02E00F933F924E
:1001D00000E3302E06E03A94F1F73A940A95D9F705
:1001E0003F900F913A9491F70A9581F72F93262D1E
:1001F0002F77622E2F912F93262D2F7B622E2F91FA
:100200002F93262D2F7D622E2F912F93262D2F7E1B
:10021000622E2F9118950FEF0DBF00E10EBF1798BA
:10022000129A3CD027D028D001E007BF04E003BFDA
:1002300008E000BF01E809BF03E000936A0078947A
:100240006624772471C13090008037FCFCCF03D046
:1002500000930080089500D0000008952D3069F1CA
:100260002A30A9F10091008007FDFCCFF4DF209334
:1002700000C0089501E0E7CF02E0E5CF00E1E3CF61
:1002800004E1E1CF08E1DFCF0CE1DDCF0DE0DBCF12
:100290000CE0D9CF0EE0D7CF0CE0D5CF05B7006C7E
:1002A00005BF01E0D0DF06E0CEDF0CE0CCDF08E3E5
:1002B000CADF0895022F0068C6CF0091008007FDB5
:1002C000FCCF00740068C7DF0093008008952F936F
:1002D00020E4F0DF2F910895FF91EF91EE0FFF1FC3
:1002E000AF93BF93C8953196002021F04AF0002DBE
:1002F00017D0F8CF3196F695E795BF91AF91099455
:1003000000FA002DC895A02DA03610F0B2E001C073
:10031000BB273196043879F0053881F015C0E2CF5B
:100320002F93FF93EF93E42DF52D202F0995EF9157
:10033000FF912F9108950C91F3DFD4CF0D910023FD
:1003400009F4D0CFEDDFFACF5F934F933F932F9314
:100350009F938F937F936F932D913D914D915D91DD
:1003600006FD06C005FD0FC004FD10C003FD19C049
:100370006AE0702F76957770729580E0902F929555
:10038000937093951AC062E094E003C060E194E03A
:1003900000C0702F7695777009F478E0729580E050
:1003A0000CC06AE0C895802D3196C895702D3196A5
:1003B000902F95959370939500C0943081F0933071
:1003C00051F0923021F0332716F427FD3FEF4427F8
:1003D00016F437FD4FEF552716F447FD5FEF09D0B0
:1003E0006F917F918F919F912F913F914F915F914D
:1003F00079CFCF92BF92AF929F928F92BB18AA24CF
:100400009924882486F4E89455236AF46894772321
:1004100009F0705150954095309520950FEF201BB5
:10042000300B400B500B882351F05595479537956D
:100430002795B794A794979487948A95B1F77F935B
:1004400072957F700EE20F9345D00C2D30D00F9334
:100450000027201730074007500729F07723A1F322
:100460007A9591F707C0772329F07A9519F000E281
:1004700057DFF9CF16F40DE253DF0F910E3211F072
:100480004FDFFBCF7F917F70772359F049DF282D15
:10049000392D4A2D5B2D11D00C2D09D041DF7A95D5
:1004A000D1F78F909F90AF90BF90CF9008950A3072
:1004B00010F4005D0895095A0895CC2400E2889450
:1004C00020FDC60EC79457954795379527950A95F1
:1004D000B1F70895CC2400E2221F331F441F551F9B
:1004E000CC1CC61A08F4C60E0A95B1F7221F331F9A
:1004F000441F551F50954095309520950895E199DA
:10050000FECFAEBBBFBB2DBB1FF0E29AE19A0895B0
:10051000F894E29AE19A78940895E199FECFAEBBFF
:10052000BFBBE09A2DB3089567FC8BC064FC4CC040
:1005300062FC52C061FEEDC061FC09C1F5CF2F9392
:10054000262D277F622E2F912F93262D2F7B622E13
:100550002F912F93262D2F7D622E2F912F93262DB5
:100560002F7E622E2F9188DE0EE2402E01E0502E6B
:10057000B3DE436F64652046414C53452020202064
:1005800020200A000EE2402E01E0502EA5DE2020A1
:1005900020202020202020202020202020200A0091
:1005A00000ED302E08E00F933F9200E3302E06E07E
:1005B0003A94F1F73A940A95D9F73F900F913A940B
:1005C00091F70A9581F7B0CF2F93262D2B7F622EBE
:1005D0002F9163FE54C0B3CF4FDE0EE2402E01E0F8
:1005E000502E7ADE456E7465722074686520636FE4
:1005F000646520200A000EE2402E01E0502E6CDEE1
:1006000020202020202020202020202020202020EA
:100610000A0060FC01C088CF70FC86CF1A9A0CEDEE
:10062000302E03E03A94F1F73A940A95D9F71A98E4
:100630000CED302E03E03A94F1F73A940A95D9F78D
:1006400073CF1ADE0EE2402E01E0502E45DE5365D8
:100650007420746865206E657720636F64650A0096
:100660000EE2402E01E0502E37DE202020202020F8
:10067000202020202020202020200A0055CF2F934A
:10068000262D2E7F622E2F912F93262D2D7F622EC9
:100690002F912F93262D2F7B622E2F912F93262D76
:1006A0002F7D622E2F912F93262D2F7E622E2F913C
:1006B000E3DD0EE2402E01E0502E0EDE436F646556
:1006C000204F4B2020202020202020200A000EE256
:1006D000402E01E0502E00DE20202020202020206F
:1006E00020202020202020200A0000ED302E08E0CD
:1006F0000F933F9200E3302E06E03A94F1F73A94DC
:100700000A95D9F73F900F913A9491F70A9581F79E
:100710000BCFB2DD0EE2402E01E0502EDDDD53792D
:100720007374656D20696E616374697665200A0073
:100730000EE2402E01E0502ECFDD20202020202090
:10074000202020202020202020200A00EDCE60FC48
:1007500003C060FE0DC008958FDD0EE2402E01E063
:10076000502EBADD0EE2402E01E0502EB5DD54CF02
:1007700083DD0EE2402E01E0502EAEDD537973741E
:10078000656D206163746976652020200A000EE2A1
:10079000402E01E0502EA0DD536F756E64203A208C
:0C07A0004F464620202020200A00BECE3C
:00000001FF
