:020000020000FC
:040000000C94000458
:100014000C9430000C944E000C946C000C948A00E8
:020040004BC1B2
:020028008DC188
:1000600000E06016B1F404EF302E02E00F933F92EF
:1000700000E3302E06E03A94F1F73A940A95D9F766
:100080003F900F913A9491F70A9581F701E0602E25
:10009000189500E0202E00E1E02E5AC000E0601626
:1000A000B1F404EF302E02E00F933F9200E3302EC4
:1000B00006E03A94F1F73A940A95D9F73F900F91F8
:1000C0003A9491F70A9581F701E0602E189501E0C6
:1000D000202E00E2E02E3CC000E06016B1F404EFF8
:1000E000302E02E00F933F9200E3302E06E03A9468
:1000F000F1F73A940A95D9F73F900F913A9491F716
:100100000A9581F701E0602E189502E0202E00E4A8
:10011000E02E1EC000E06016B1F404EF302E02E0C5
:100120000F933F9200E3302E06E03A94F1F73A94B1
:100130000A95D9F73F900F913A9491F70A9581F774
:1001400001E0602E189503E0202E00E8E02E00C0AC
:100150000FEF03B90EE1302E01E00F933F9200E361
:10016000302E06E03A94F1F73A940A95D9F73F9089
:100170000F913A9491F70A9581F707EF03B90EE1D1
:10018000302E01E00F933F9200E3302E06E03A94C8
:10019000F1F73A940A95D9F73F900F913A9491F775
:1001A0000A9581F701B10E21002319F403E0102E06
:1001B0008DC00EE1302E01E00F933F9200E3302E10
:1001C00006E03A94F1F73A940A95D9F73F900F91E7
:1001D0003A9491F70A9581F70BEF03B90EE1302EAF
:1001E00001E00F933F9200E3302E06E03A94F1F7DE
:1001F0003A940A95D9F73F900F913A9491F70A955E
:1002000081F701B10E21002319F402E0102E5EC027
:100210000EE1302E01E00F933F9200E3302E06E016
:100220003A94F1F73A940A95D9F73F900F913A949E
:1002300091F70A9581F70DEF03B90EE1302E01E039
:100240000F933F9200E3302E06E03A94F1F73A9490
:100250000A95D9F73F900F913A9491F70A9581F753
:1002600001B10E21002319F401E0102E2FC00EE180
:10027000302E01E00F933F9200E3302E06E03A94D7
:10028000F1F73A940A95D9F73F900F913A9491F784
:100290000A9581F70EEF03B90EE1302E01E00F93BE
:1002A0003F9200E3302E06E03A94F1F73A940A9533
:1002B000D9F73F900F913A9491F70A9581F701B1E0
:1002C0000E21002319F400E0102E00C01AE000EF08
:1002D00003B90FEFF02E189500E0601609F018959D
:1002E0002F933F93B1D12CECDBD124E4D9D10EEE86
:1002F000302E03E00F933F9200E3302E06E03A9455
:10030000F1F73A940A95D9F73F900F913A9491F703
:100310000A9581F736D098D12CECC2D12EEBC0D102
:10032000CAD1822EC8D1922E882CAFEFA0E0B1E0C6
:100330002D913C91821693063F912F9108F002E097
:10034000602E18958A9B02C08A9801C08A9A1895D7
:100350003090008037FCFCCF03D0009300800895DC
:1003600000D0000008952D3069F12A30A9F10091E4
:10037000008007FDFCCFF4DF209300C0089501E06A
:10038000E7CF02E0E5CF00E1E3CF04E1E1CF08E110
:10039000DFCF0CE1DDCF0DE0DBCF0CE0D9CF0EE0FD
:1003A000D7CF0CE0D5CF05B7006C05BF01E0D0DF9B
:1003B00006E0CEDF0CE0CCDF08E3CADF0895022FB1
:1003C0000068C6CF0091008007FDFCCF0074006874
:1003D000C7DF0093008008952F9320E4F0DF2F9172
:1003E0000895FF91EF91EE0FFF1FAF93BF93C89554
:1003F0003196002021F04AF0002D17D0F8CF319629
:10040000F695E795BF91AF91099400FA002DC89534
:10041000A02DA03610F0B2E001C0BB273196043801
:1004200079F0053881F015C0E2CF2F93FF93EF9359
:10043000E42DF52D202F0995EF91FF912F9108952F
:100440000C91F3DFD4CF0D91002309F4D0CFEDDF71
:10045000FACF5F934F933F932F939F938F937F9305
:100460006F932D913D914D915D9106FD06C005FD67
:100470000FC004FD10C003FD19C06AE0702F76950F
:100480007770729580E0902F9295937093951AC033
:1004900062E094E003C060E194E000C0702F7695C4
:1004A000777009F478E0729580E00CC06AE0C89536
:1004B000802D3196C895702D3196902F959593701B
:1004C000939500C0943081F0933051F0923021F038
:1004D000332716F427FD3FEF442716F437FD4FEF7F
:1004E000552716F447FD5FEF09D06F917F918F91EB
:1004F0009F912F913F914F915F9179CFCF92BF9272
:10050000AF929F928F92BB18AA249924882486F4D4
:10051000E89455236AF46894772309F07051509554
:100520004095309520950FEF201B300B400B500B62
:10053000882351F05595479537952795B794A794FB
:10054000979487948A95B1F77F9372957F700EE2A6
:100550000F9345D00C2D30D00F9300272017300774
:100560004007500729F07723A1F37A9591F707C048
:10057000772329F07A9519F000E257DFF9CF16F4C6
:100580000DE253DF0F910E3211F04FDFFBCF7F9161
:100590007F70772359F049DF282D392D4A2D5B2DA7
:1005A00011D00C2D09D041DF7A95D1F78F909F9013
:1005B000AF90BF90CF9008950A3010F4005D089579
:1005C000095A0895CC2400E2889420FDC60EC794F1
:1005D00057954795379527950A95B1F70895CC24F7
:1005E00000E2221F331F441F551FCC1CC61A08F4FB
:1005F000C60E0A95B1F7221F331F441F551F509591
:100600004095309520950895E199FECFAEBBBFBBD4
:100610002DBB1FF0E29AE19A0895F894E29AE19ACC
:1006200078940895E199FECFAEBBBFBBE09A2DB39D
:1006300008950A9500000000000000000000C9F7BE
:100640000895C598BD980895BD9A00EFF2DFBD9852
:1006500003E2EFDF06B305FB0DECEBDF0895BD9A77
:100660000CE1E7DFBD9802E0E4DF06B305FB01E043
:10067000E0DF0895BD9A01E0DCDFBD980EE1D9DF2F
:1006800006B305FB01E0D5DF0895BD9A01E0D1DF97
:10069000BD9807E0CEDF06B305FB07E1CADF08958A
:1006A0003F9338E0279510F4E5DF01C0D8DF3A9595
:1006B000C9F73F9108953F9338E02795E6DF27F982
:1006C0003A95D9F73F91089509E148E0279508F454
:1006D000302730FB379537F94A95C1F7089501B3B4
:1006E0000F7801BB02B3006702BB0895552740E1B4
:1006F000E89410B3107720900801121511F4989423
:100700000895109308012126989426FC68C024FEC1
:10071000089516FF2DC014FD15C02395203011F447
:10072000339551E0000015FD21C02150203019F013
:1007300021500C949D03315021500000503009F09D
:10074000315014C02395203011F4339551E000004E
:1007500015FF0CC02150203019F021500C94B20329
:10076000315021500000503009F0315098940895D4
:1007700014FD1AC0240F10F4339551E0000015FD4C
:10078000F5CF20512F934F9340EF24234F912030EA
:100790002F9119F020510C94CF03315020510000BB
:1007A000503009F03150E2CF240F10F4339551E06E
:1007B000000015FFDBCF20512F934F9340EF2423F0
:1007C0004F9120302F9119F020510C94E9033150B2
:1007D00020510000503009F031501894089516FD52
:0807E00002C068940895089519
:100800000FEF0DBF00E10EBF15B71093DDDD11270F
:10081000CADD17DF64DF01E00ABB00E00BBB0FEFAE
:1008200004BB0FEF01BB8A9A0FE002B900EF03B9D6
:1008300000EF09BF00E00ABF01E007BF08E000BF0A
:1008400006E003BF02E005BD00EE202F01E0302FDF
:10085000A0E0B1E02C93A3953C936F936627AF93F0
:10086000BF932F932227ACE0BFEFDCDE622F2F91E6
:10087000BF91AF91613328F0643418F40000262F43
:1008800002C001E3202F00006F9100006F936627E4
:10089000AF93BF932F932227ADE0BFEFC3DE622F4C
:1008A0002F91BF91AF91613328F0643418F40000A8
:1008B000362F02C001E3302F00006F9100006F93CC
:1008C0006627AF93BF932F932227AEE0BFEFAADE38
:1008D000622F2F91BF91AF91613328F0643418F4E7
:1008E0000000462F02C001E3402F00006F9100007E
:1008F0006F936627AF93BF932F932227AFE0BFEF8D
:1009000091DE622F2F91BF91AF91613328F0643453
:1009100018F40000562F02C001E3502F00006F9121
:100920000000A2E0B1E02D933D934D935C9303EB67
:10093000402E01E0502E55DD0C0D537072696E6B28
:100940006C6572205379730003E2202F03E2302F8D
:1009500003E2402F03E2502F00E0602EBB1B222455
:100960001124FF24AA27772788279927789400E065
:10097000601651F001E0601609F41AC002E060163A
:1009800009F476C00000F3CFAA2389F3AA27282D03
:10099000392D03EB402E01E0502E23DD0A43757202
:1009A000722054656D703D8B120422432000DFCF0E
:1009B000E6DCBB2703EB402E01E0502E12DD0C0DD0
:1009C000454E5445523A200003E2202F03E2302FD7
:1009D00003E2402F03E2502FFF20F1F3FF2403E056
:1009E000101649F401E0201619F002E00C940505F8
:1009F00001E00C94050503E0201631F401E0101627
:100A000019F002E00C94050500E00000013009F443
:100A10000C949505023001F3EE1BFF27E6EAFAE19C
:100A2000E20DE20DE20DE20DE10D0491B03031F086
:100A3000B13039F0B23041F0B33049F0B1E0202F9D
:100A400008C0B2E0302F05C0B3E0402F02C0B0E0D4
:100A5000502F000003EB402E01E0502EC2DC0A4371
:100A60006F646520696E3A20202020851200B4CF83
:100A700000E407BF9DCF08EE302E04E00F933F92B5
:100A800000E3302E06E03A94F1F73A940A95D9F74C
:100A90003F900F913A9491F70A9581F770DC03EB40
:100AA000402E01E0502E9DDC0C0D537072696E6B70
:100AB0006C6572205379730001E007BF00E0602E7F
:100AC000F89410EF0E944C0D120F130F58DC03EB3B
:100AD000402E01E0502E85DC0C0D536572766F20A0
:100AE0006163746976617465640001E00ABB01E0CA
:100AF0000BBB0091DDDD05BF1123A1F01A95AC9869
:100B000004ED302E08EA3A94F1F73A940A95D9F7B1
:100B1000AC9A04ED302E09E03A94F1F73A940A9534
:100B2000D9F7EACF78940C94000429DC03EB402E2B
:100B300001E0502E56DC0D0D7665726966696361C1
:100B400074696F6E2E2E2E0008EE302E04E00F9387
:100B50003F9200E3302E06E03A94F1F73A940A957A
:100B6000D9F73F900F913A9491F70A9581F78F92B8
:100B70009F92AF92BF92A2E0B1E08D909D90AD9018
:100B8000BC90281509F021C0391509F01EC04A157E
:100B900009F01BC05B1509F018C00000BF90AF90B2
:100BA0009F908F90000003EB402E01E0502E19DC47
:100BB0000D0A436F727265637420436F64650000B1
:100BC00002E0601609F457CF38C0BF90AF909F90F5
:100BD0008F9003EB402E01E0502E03DC0A57726F1A
:100BE0006E6720636F646520000008EE302E04E01D
:100BF0000F933F9200E3302E06E03A94F1F73A94D7
:100C00000A95D9F73F900F913A9491F70A9581F799
:100C100002E0601609F4CCCE00E0602EB0DB03EBFE
:100C2000402E01E0502EDDDB0C0D537072696E6BAF
:100C30006C657220537973009ACE08EE302E04E072
:100C40000F933F9200E3302E06E03A94F1F73A9486
:100C50000A95D9F73F900F913A9491F70A9581F749
:100C60008EDB04E6302E01E00F933F9200E3302E3E
:100C700006E03A94F1F73A940A95D9F73F900F912C
:100C80003A9491F70A9581F703EB402E01E0502E3C
:100C9000A8DB0C0D413D4348414E474520434F449E
:100CA0004500000003EB402E01E0502E9ADB0A4283
:100CB0003D4348414E47452054454D50202020009B
:100CC000FF2079F2FF24EE1BFF27E6EAFAE1E20DAE
:100CD000E20DE20DE20DE10D0491013409F47AC058
:100CE000023409F0BECFA0E0B1E02D913C9147DB8A
:100CF00003EB402E01E0502E74DB0C0D4368616E57
:100D000067652074656D703A00000AE0302E01E0DE
:100D10000F933F9200E3302E06E03A94F1F73A94B5
:100D20000A95D9F73F900F913A9491F70A9581F778
:100D3000DDDC03EB402E01E0502E53DB0A54656DE1
:100D4000703D8B12043243200000FF20F1F2FF249B
:100D5000EE1BFF27E6EAFAE1E20DE20DE20DE20DFD
:100D6000E10D0491013409F0D0CFA0E0B1E02D9362
:100D70003C9305DB03EB402E01E0502E32DB0A4EA4
:100D800045572054454D50205345540000E0602EF7
:100D900008EE302E04E00F933F9200E3302E06E081
:100DA0003A94F1F73A940A95D9F73F900F913A9413
:100DB00091F70A9581F7E3DA03EB402E01E0502E1C
:100DC00010DB0C0D537072696E6B6C657220537979
:100DD0007300CDCDD4DA03EB402E01E0502E01DBC1
:100DE0000C0D5752495445204E455720434F44451A
:100DF0003A00A2E0B1E02D913D914D915C9103EB61
:100E0000402E01E0502EEDDA0A4E455720434F4464
:100E1000453A20202085120004EF302E02E00F9387
:100E20003F9200E3302E06E03A94F1F73A940A95A7
:100E3000D9F73F900F913A9491F70A9581F7B0E076
:100E400001E0302E01E00F933F9200E3302E06E0E8
:100E50003A94F1F73A940A95D9F73F900F913A9462
:100E600091F70A9581F7FF2059F3FF2403E010164C
:100E700049F401E0201619F002E00C944C0701E05F
:100E80000C944C0703E0201631F401E0101619F021
:100E900002E00C944C0700E00000013009F40C94CF
:100EA0008007023009F4CCCFEE1BFF27E6EAFAE117
:100EB000E20DE20DE20DE20DE10D0491B03031F0F2
:100EC000B13039F0B23041F0B33049F0B1E0202F09
:100ED00008C0B2E0302F05C0B3E0402F02C0B0E040
:100EE000502F000003EB402E01E0502E7ADA0A4E1C
:100EF000455720434F44453A202020851200A0CF7B
:100F0000A2E0B1E02D933D934D935C932F933F93DB
:100F10004F935F9334DA03EB402E01E0502E61DAF9
:100F20000A4E455720434F4445205345540000E0A6
:100F3000602E08EE302E04E00F933F9200E3302E37
:100F400006E03A94F1F73A940A95D9F73F900F9159
:100F50003A9491F70A9581F712DA03EB402E01E0FB
:100F6000502E3FDA0C0D537072696E6B6C657220F7
:100F7000537973005F914F913F912F91F8942F9384
:100F8000AF93BF93222FACE0BFEF3EDBBF91AF9199
:100F90002F917894F8942F93AF93BF93232FADE0C4
:100FA000BFEF32DBBF91AF912F917894F8942F93DC
:100FB000AF93BF93242FAEE0BFEF26DBBF91AF917D
:100FC0002F917894F8942F93AF93BF93252FAFE090
:100FD000BFEF1ADBBF91AF912F917894C8CC9918CD
:100FE000882460FD920E9794879461FD920E9794E9
:100FF000879462FD920E9794879463FD920E979466
:10100000879464FD920E9794879465FD920E979451
:10101000879466FD920E9794879467FD920E97943D
:1010200087940895AA189924882460FF02C0920E1C
:10103000A31EA7949794879461FF02C0920EA31EEB
:10104000A7949794879462FF02C0920EA31EA79460
:101050009794879463FF02C0920EA31EA79497945F
:10106000879464FF02C0920EA31EA794979487945E
:1010700065FF02C0920EA31EA7949794879466FF03
:1010800002C0920EA31EA7949794879467FF02C094
:10109000920EA31EA794979487940895BB18AA2430
:1010A00099248824002460FF03C0920EA31EB01C64
:1010B00070FF02C0A20EB31EB794A79497948794B2
:1010C00061FF03C0920EA31EB01C71FF02C0A20EEE
:1010D000B31EB794A7949794879462FF03C0920EAF
:1010E000A31EB01C72FF02C0A20EB31EB794A79439
:1010F0009794879463FF03C0920EA31EB01C73FFE6
:1011000002C0A20EB31EB794A7949794879464FF6D
:1011100003C0920EA31EB01C74FF02C0A20EB31E29
:10112000B794A7949794879465FF03C0920EA31E6B
:10113000B01C75FF02C0A20EB31EB794A79497947B
:10114000879466FF03C0920EA31EB01C76FF02C0F8
:10115000A20EB31EB794A7949794879467FF03C019
:10116000920EA31EB01C77FF02C0A20EB31EB7944E
:10117000A794979487940895BB18AA249924882447
:1011800060FF03C0920EA31EB41EB794A794979459
:10119000879461FF03C0920EA31EB41EB794A79458
:1011A0009794879462FF03C0920EA31EB41EB79457
:1011B000A7949794879463FF03C0920EA31EB41E56
:1011C000B794A7949794879464FF03C0920EA31ECC
:1011D000B41EB794A7949794879465FF03C0920EAA
:1011E000A31EB41EB794A7949794879466FF03C078
:1011F000920EA31EB41EB794A7949794879467FF8A
:1012000003C0920EA31EB41EB794A794979487941C
:101210000895CC18BB24AA2499248824002460FFB4
:1012200004C0920EA31EB41EC01C70FF03C0A20E09
:10123000B31EC41EC794B794A7949794879461FF74
:1012400004C0920EA31EB41EC01C71FF03C0A20EE8
:10125000B31EC41EC794B794A7949794879462FF53
:1012600004C0920EA31EB41EC01C72FF03C0A20EC7
:10127000B31EC41EC794B794A7949794879463FF32
:1012800004C0920EA31EB41EC01C73FF03C0A20EA6
:10129000B31EC41EC794B794A7949794879464FF11
:1012A00004C0920EA31EB41EC01C74FF03C0A20E85
:1012B000B31EC41EC794B794A7949794879465FFF0
:1012C00004C0920EA31EB41EC01C75FF03C0A20E64
:1012D000B31EC41EC794B794A7949794879466FFCF
:1012E00004C0920EA31EB41EC01C76FF03C0A20E43
:1012F000B31EC41EC794B794A7949794879467FFAE
:1013000004C0920EA31EB41EC01C77FF03C0A20E21
:10131000B31EC41EC794B794A79497948794089556
:10132000DD18CC24BB24AA2499248824002460FF3F
:1013300004C0920EA31EB41EC01CD01C70FF03C0BC
:10134000A20EB31EC41ED01C80FF03C0B20E831EAB
:10135000D41ED794C794B794A7949794879461FFA9
:1013600004C0920EA31EB41EC01CD01C71FF03C08B
:10137000A20EB31EC41ED01C81FF03C0B20E831E7A
:10138000D41ED794C794B794A7949794879462FF78
:1013900004C0920EA31EB41EC01CD01C72FF03C05A
:1013A000A20EB31EC41ED01C82FF03C0B20E831E49
:1013B000D41ED794C794B794A7949794879463FF47
:1013C00004C0920EA31EB41EC01CD01C73FF03C029
:1013D000A20EB31EC41ED01C83FF03C0B20E831E18
:1013E000D41ED794C794B794A7949794879464FF16
:1013F00004C0920EA31EB41EC01CD01C74FF03C0F8
:10140000A20EB31EC41ED01C84FF03C0B20E831EE6
:10141000D41ED794C794B794A7949794879465FFE4
:1014200004C0920EA31EB41EC01CD01C75FF03C0C6
:10143000A20EB31EC41ED01C85FF03C0B20E831EB5
:10144000D41ED794C794B794A7949794879466FFB3
:1014500004C0920EA31EB41EC01CD01C76FF03C095
:10146000A20EB31EC41ED01C86FF03C0B20E831E84
:10147000D41ED794C794B794A7949794879467FF82
:1014800004C0920EA31EB41EC01CD01C77FF03C064
:10149000A20EB31EC41ED01C87FF03C0B20E831E53
:1014A000D41ED794C794B794A7949794879408951B
:1014B000FF18EE24DD24CC24BB24AA2499248824FC
:1014C000002460FF07C0920EA31EB41EC51ED01CD0
:1014D000E01CF01C70FF06C0A20EB31EC41ED51E79
:1014E000E01CF01C80FF05C0B20EC31ED41EE51E1A
:1014F000F01C90FF04C0C20ED31EE41EF51EF7942C
:10150000E794D794C794B794A7949794879461FF6E
:1015100007C0920EA31EB41EC51ED01CE01CF01CFA
:1015200071FF06C0A20EB31EC41ED51EE01CF01C27
:1015300081FF05C0B20EC31ED41EE51EF01C91FF34
:1015400004C0C20ED31EE41EF51EF794E794D79490
:10155000C794B794A7949794879462FF07C0920E9C
:10156000A31EB41EC51ED01CE01CF01C72FF06C0DA
:10157000A20EB31EC41ED51EE01CF01C82FF05C0C7
:10158000B20EC31ED41EE51EF01C92FF04C0C20E94
:10159000D31EE41EF51EF794E794D794C794B7942E
:1015A000A7949794879463FF07C0920EA31EB41E5E
:1015B000C51ED01CE01CF01C73FF06C0A20EB31E9B
:1015C000C41ED51EE01CF01C83FF05C0B20EC31E56
:1015D000D41EE51EF01C93FF04C0C20ED31EE41EF1
:1015E000F51EF794E794D794C794B794A79497946B
:1015F000879464FF07C0920EA31EB41EC51ED01CA4
:10160000E01CF01C74FF06C0A20EB31EC41ED51E43
:10161000E01CF01C84FF05C0B20EC31ED41EE51EE4
:10162000F01C94FF04C0C20ED31EE41EF51EF794F6
:10163000E794D794C794B794A7949794879465FF39
:1016400007C0920EA31EB41EC51ED01CE01CF01CC9
:1016500075FF06C0A20EB31EC41ED51EE01CF01CF2
:1016600085FF05C0B20EC31ED41EE51EF01C95FFFB
:1016700004C0C20ED31EE41EF51EF794E794D7945F
:10168000C794B794A7949794879466FF07C0920E67
:10169000A31EB41EC51ED01CE01CF01C76FF06C0A5
:1016A000A20EB31EC41ED51EE01CF01C86FF05C092
:1016B000B20EC31ED41EE51EF01C96FF04C0C20E5F
:1016C000D31EE41EF51EF794E794D794C794B794FD
:1016D000A7949794879467FF07C0920EA31EB41E29
:1016E000C51ED01CE01CF01C77FF06C0A20EB31E66
:1016F000C41ED51EE01CF01C87FF05C0B20EC31E21
:10170000D41EE51EF01C97FF04C0C20ED31EE41EBB
:10171000F51EF794E794D794C794B794A794979439
:10172000879408955CDC27FD961A67FD921A089548
:10173000B5DC37FF02C0A61AB70A77FF02C0A21AAB
:10174000B30A0895EDDD47FF03C0B61AC70AD80AE9
:1017500087FF03C0B21AC30AD40A0895A9DE57FF4F
:1017600004C0C61AD70AE80AF90A97FF04C0C21AC9
:10177000D30AE40AF50A0895822ECC18881CCC1CE2
:10178000C61A08F4C60E881CCC1CC61A08F4C60E6D
:10179000881CCC1CC61A08F4C60E881CCC1CC61AA1
:1017A00008F4C60E881CCC1CC61A08F4C60E881C89
:1017B000CC1CC61A08F4C60E881CCC1CC61A08F429
:1017C000C60E881CCC1CC61A08F4C60E881C809451
:1017D0000895822E932ECC2400E1881C991CCC1CE9
:1017E000C61A08F4C60E0A95C1F7881C991C909475
:1017F00080940895822E932EDD18CC24881C991C89
:10180000CC1CDD1CC61AD70A10F4C60ED71E881CC5
:10181000991CCC1CDD1CC61AD70A10F4C60ED71EA4
:10182000881C991CCC1CDD1CC61AD70A10F4C60EE5
:10183000D71E881C991CCC1CDD1CC61AD70A10F4B4
:10184000C60ED71E881C991CCC1CDD1CC61AD70AD4
:1018500010F4C60ED71E881C991CCC1CDD1CC61AA1
:10186000D70A10F4C60ED71E881C991CCC1CDD1C90
:10187000C61AD70A10F4C60ED71E881C991CCC1C99
:10188000DD1CC61AD70A10F4C60ED71E881C991C78
:10189000CC1CDD1CC61AD70A10F4C60ED71E881C35
:1018A000991CCC1CDD1CC61AD70A10F4C60ED71E14
:1018B000881C991CCC1CDD1CC61AD70A10F4C60E55
:1018C000D71E881C991CCC1CDD1CC61AD70A10F424
:1018D000C60ED71E881C991CCC1CDD1CC61AD70A44
:1018E00010F4C60ED71E881C991CCC1CDD1CC61A11
:1018F000D70A10F4C60ED71E881C991CCC1CDD1C00
:10190000C61AD70A10F4C60ED71E881C991CCC1C08
:10191000DD1CC61AD70A10F4C60ED71E881C991CE7
:10192000909480940895822E932EA42ECC2408E1C6
:10193000881C991CAA1CCC1CC61A08F4C60E0A9551
:10194000B9F7881C991CAA1CA094909480940895BF
:10195000822E932EA42EDD18CC2408E1881C991C1D
:10196000AA1CCC1CDD1CC61AD70A10F4C60ED71E42
:101970000A95A1F7881C991CAA1CA09490948094A5
:1019800008951FB61F92FF93EF93DF93CF93BF93FA
:10199000AF931F930F93FF92EF92DF92CF92BF927C
:1019A000AF929F928F929F938F937F936F935F934A
:1019B0004F933F932F93A0910100B0910600E091C7
:1019C0000BFFF0910AFF20E137E26E2F7F2F0E947C
:1019D000FA0B182D2C2D3D2D64E60E941208282D9F
:1019E000392D4A2D6E2F7F2F0E94A80C082DE02F35
:1019F000F12F0027112711E0A2E0B2E00E0F1F1F08
:101A0000BB24B3941F930F9334D00F911F912D2FAC
:101A10006B2F0E94BC0B180DCC0D2C2F6B2F0E942E
:101A2000BC0B080DA3952B2F6A2F0E94580AB82DC6
:101A3000A43031F710930100009306002F913F91DD
:101A40004F915F916F917F918F919F918F909F9018
:101A5000AF90BF90CF90DF90EF90FF900F911F91CC
:101A6000AF91BF91CF91DF91EF91FF911F901FBE7A
:101A700008952E2F6E2F0E94EF07282D392D64E632
:101A80000E94E90BC80D2F2F6F2F0E94EF07D80D72
:101A9000B394BA1674F308950E94DB0C20910601EA
:101AA00030910601089531323341343536423738AA
:061AB00039432A302344F3
:00000001FF
